:020000040800F2
:10000000203B00207D020008850200085171000895
:10001000890200088B0200088D0200080000000021
:100020000000000000000000000000008F02000837
:10003000910200080000000093020008213E010820
:10004000970200089702000897020008970200082C
:100050009702000897020008492F00088F2F000818
:100060009D2F0008AB2F0008B92F00089702000849
:1000700097020008970200089702000897020008FC
:1000800097020008970200089702000897020008EC
:10009000970200089702000897020008C72F00087F
:1000A000000000009702000897020008970200086D
:1000B00097020008970200089702000897020008BC
:1000C00097020008970200089702000897020008AC
:1000D00097020008354901089702000845490108C0
:1000E000572F00086DA5000897020008E53F01089A
:1000F0009702000800F002F800F0B0F80AA090E8BB
:10010000000C82448344AAF10107DA4501D100F0D2
:10011000A5F8AFF2090EBAE80F0013F0010F18BFEF
:10012000FB1A43F00103184750AB010070AB01000C
:100130000A444FF0000C10F8013B13F0070408BF0D
:1001400010F8014B1D1108BF10F8015B641E05D0AB
:1001500010F8016B641E01F8016BF9D113F0080F60
:100160001EBF10F8014BAD1C0C1B09D16D1E58BFF2
:1001700001F801CBFAD505E014F8016B01F8016B29
:100180006D1EF9D59142D6D370470000002300249C
:1001900000250026103A28BF78C1FBD8520728BF97
:1001A00030C148BF0B6070476E2900F098847029F9
:1001B00000F08B81662919F0D285652919F0CF8569
:1001C000672919F0CC85612919F0CB8503681B0AD2
:1001D00028BF41F08001692900F0FC80642900F00B
:1001E000F980752900F0F6806F2900F0948778294E
:1001F00000F05781E92900F02F87E42900F02C87CF
:10020000F52900F02987EF2900F09187F82900F0FF
:1002100056810368DB0928BF41F08001632900F0A3
:10022000B086732900F0B586E32901F02982F3290D
:1002300001F02E82002070471FB501F00FF8040076
:100240000020002118F046FE401C606000200021C4
:1002500018F056FEE0601FBD10B510BD01F0BDFAEC
:100260001146FFF7E9FF17F083FC01F0DBFA03B456
:10027000FFF7F2FF03BC01F0DFFA000009488047F6
:1002800009480047FEE7FEE7FEE7FEE7FEE7FEE778
:10029000FEE7FEE7FEE7FEE704480549054A064B90
:1002A00070470000813F0108F5000008203300205E
:1002B000203B0020203500202035002010B50446CA
:1002C00000F096FB0068005D80EA800000F080008E
:1002D00010BD00007CB51D4616460C00009001D0F4
:1002E0002044401E074B7B442A4669460190304615
:1002F00000F01DFE05461CB10020694600F02AFEF4
:1003000028467CBD750C00000FB41CB5084B06AA2E
:100310007B4469460090059800F009FE04460020E1
:10032000694600F017FE20461CBC5DF814FB000077
:10033000410C000070B5044685690068C10601D50E
:10034000302600E02026C00707D070BDD4E9012187
:1003500030469047206A401C20626D1EF6D570BD65
:1003600070B5044685690078C00707D170BDD4E92F
:10037000012120209047206A401C20626D1EF6D586
:1003800070BD70B50C460546012A05D02878800658
:1003900000D5EA69002302E0012305E05B1C9342DB
:1003A00002D2E05C0028F9D1A869E618C01AA86159
:1003B000286A184428622846FFF7BCFF04E0D5E904
:1003C000012114F8010B9047B442F8D32846FFF7F7
:1003D000C7FF70BD2DE9F04106460024106875295D
:1003E000314616A510D000F00FFB002802DA40427B
:1003F00013A507E031688A0701D512A502E0490775
:1004000004D511A5012401E000F007FB00210A2218
:1004100006F1240709E0B0FBF2FCB0FBF2F302FBAB
:100420001C00303078541846491C0028F3D123466C
:100430002A463046BDE8F04100F0F8BA000000005E
:100440002D0000002B00000020000000F0B40D463D
:100450000188090502D5214C7C4402E01F4C7C44F4
:100460000E34002100F1240608E002F00F07120903
:10047000E75D42EA03721B097754491C52EA0307FD
:10048000F3D102780023120704D5702D06D009B1EC
:10049000022311342246F0BC00F0C8BA0123103404
:1004A000F8E770B504460D462146106800F0B5FA2D
:1004B000024629462046BDE870400023C6E7D21D0B
:1004C00022F00703D3E90023C0E70368126843F072
:1004D000200303600823C3610023B7E7C0A4010021
:1004E0002DE9F05F894604464FF0000ADFF874B149
:1004F000FB44C0F820A02046E1688847002874D05B
:10050000252806D0D4E901219047206A401C2062AA
:10051000F1E700265F462046E16888472028054627
:1005200007DB312D05D2781910F8200C08B10643ED
:10053000F1E7B00701D526F00406C4F81CA0002797
:10054000C4F818A02A2D09D0284614F09FFC38B30F
:1005500004EB8708303DC8F8185019E059F8041B1F
:10056000204604EB87029161E1688847012F054628
:1005700018D1E069002820DA26F020061DE0D8F81E
:10058000180000EB800005EB40003038C8F8180078
:100590002046E1688847054614F078FC0028EED133
:1005A000012F0AD02E2D08D12046E16888477F1CF4
:1005B0000546022F46F02006C4DBA069002803DAB6
:1005C000404246F00106A061F00701D026F0100677
:1005D0006C2D0BD0682D09D04C2D39D06A2D35D01B
:1005E000742D35D07A2D33D016E038E0E1682F46EF
:1005F00020468847B842054609D16C2F26D04FF4D3
:100600008060E168064320468847054604E06C2F79
:100610001AD04FF4807006430DB3A5F1410019289C
:1006200002D8203546F400664A4629462046266010
:100630004E46FFF7B9FD80B101280BD0F61D26F01C
:10064000070000F1080956E74020E4E78020D8E7DA
:100650000020D6E706F104094DE7284652E7206A54
:10066000BDE8F09F50A4010070B5064600F0C8F93F
:100670000468054630460A22002100F0B2FD2C60D5
:1006800070BD70B5064600F0BBF9046805463046FB
:100690000A22002100F0A5FD2C6070BD2DE9F05F5D
:1006A00093460F4680460446002600F0A9F9D0F88C
:1006B0000090824614F8015B2DB100F099F90068B2
:1006C000405DC007F6D12B2D02D02D2D1AD0641E0F
:1006D0000021CAF800105A463946204600F032FD83
:1006E000014627B13868A04201D1C7F80080DAF886
:1006F0000000022809D0CAF80090700505D54842CC
:10070000BDE8F09F46F48066E2E70846F8E740EA75
:100710000103024630B59B0710D14FF0013400E0D1
:1007200008C208C91D1B9D4315EAC41FF8D013F069
:10073000FF0102F8011B0DD01B0AF8E711F8013B7D
:10074000002B02F8013B05D011F8013B002B02F809
:10075000013BF3D130BD10B5431C02E010F8011B82
:1007600071B18107FAD14FF0013202C88C1A8C4363
:1007700014EAC211F9D0C01A0A0603D0C01E10BD77
:10078000C01A10BD0A0401D0801E10BD0902FCD0A1
:10079000401E10BD40EA010370B59B072ED14FF0FB
:1007A0000136042A2AD308C810C99D1B9D43121F75
:1007B00015EAC61517D0D8B2E1B2401A50EA056161
:1007C00010D198B2A1B2401A50EA05410AD123F0E3
:1007D0007F4024F07F41401A50EA052102D1180ED3
:1007E000A0EB146070BDA342DBD018BA21BA8842D6
:1007F00001D9012070BD4FF0FF3070BD0AB9002053
:1008000070BD10F8013B11F8014B63B1A3420AD14E
:10081000521E08D010F8013B11F8014B1BB1A34246
:1008200001D1521EEDD1181B70BD032A40F2308059
:1008300010F0030C00F0158011F8013BBCF1020F21
:10084000624498BF11F801CB00F8013B38BF11F8A2
:10085000013BA2F1040298BF00F801CB38BF00F8B9
:10086000013B11F0030300F02580083AC0F0088036
:1008700051F8043B083A51F804CBA0E80810F5E71A
:10088000121D5CBF51F8043B40F8043BAFF30080FD
:10089000D20724BF11F8013B11F801CB48BF11F872
:1008A000012B24BF00F8013B00F801CB48BF00F842
:1008B000012B704710B5203AC0F00B80B1E81850FA
:1008C000203AA0E81850B1E81850A0E81850BFF43A
:1008D000F5AF5FEA027C24BFB1E81850A0E81850D9
:1008E00044BF18C918C0BDE810405FEA827C24BF2D
:1008F00051F8043B40F8043B08BF7047D20728BFBB
:1009000031F8023B48BF11F8012B28BF20F8023B09
:1009100048BF00F8012B70474FF0000200B51346A6
:1009200094469646203922BFA0E80C50A0E80C500F
:10093000B1F12001BFF4F7AF090728BFA0E80C50C0
:1009400048BF0CC05DF804EB890028BF40F8042BB9
:1009500008BF704748BF20F8022B11F0804F18BF26
:1009600000F8012B704700004FF0013C50F8042BB9
:1009700051F8043B9A4221D1A2EB0C03934313EAB2
:10098000CC1317D150F8042B51F8043B9A4215D1DF
:10099000A2EB0C03934313EACC130BD150F8042BB6
:1009A00051F8043B9A4209D1A2EB0C03934313EA9A
:1009B000CC13DBD04FF00000704700BFD01A01BA53
:1009C000B1FA81F101F0180122FA01F0CB40C1F136
:1009D0002001DBB2C0B2C01A2CFA01F3D11A914344
:1009E00011EAC311E6D170477047704770470000A5
:1009F00010B500F033FC001D10BD00BFD98401000C
:100A000000487047BC32002009684A0501D540B251
:100A10007047C905FCD500B2704709684A0501D581
:100A2000C0B27047C905FCD580B270472DE9F047C8
:100A30000D4699469246044600F12408016888064E
:100A400004D5E06921F01001216000E00120A842F6
:100A500001DD471B00E00027A1697A1902EB0900BC
:100A6000081AA0612078C00602D42046FFF762FC75
:100A7000002608E0D4E901211AF806009047206A10
:100A8000401C761C20624E45F4DB2078C0060AD557
:100A90002046FFF74FFC06E0D4E9012130209047C3
:100AA000206A401C2062381EA7F10107F4DC07E031
:100AB000D4E9012118F805009047206A401C206203
:100AC000281EA5F10105F3DC2046FFF749FC20783C
:100AD000000602D50220BDE8F0870120FBE711687F
:100AE0000268006A530501D508700AE0D30501D5F4
:100AF000088006E0130603D5C217C1E9000200E032
:100B000008600120704770472DE9FF4F0C461E46D4
:100B10004FF0FF378BB0D2E90001DDF860800A901A
:100B20008A46C1F30A5505B93D46002108464FF0F3
:100B30000000BAF1000F00F4400005DA00EB80007D
:100B40004FF4400101EA50004FEA9059B9F1010F0A
:100B500000DDB9460A9850EA4A000ED044F610501B
:100B6000A5F2FF3545432F14B8F1000F1ED0754292
:100B7000291E1EDDC9F100021CE0B8F1010F4FF083
:100B8000000001D0302103E0F24305E02154401C75
:100B9000B042FBDB30460022002121540B99C1F802
:100BA0000880C1E900200FB0BDE8F08FBD1B6D1CAF
:100BB000DEE74A4600DA694206A800F07BFD06AB94
:100BC00093E8070003AB83E8070050460A9900F05A
:100BD00039FE8DE80700A0F500501F3800900398FB
:100BE000002D0ADD42F21F014A460844002303A9F2
:100BF0000390684601F0A2F809E0A0F500504A46CB
:100C00001F38002303A90390684601F0ACF88DE873
:100C100007000004000C03D04FF0FF30410800E053
:100C20001046B8F1000F03D00022009215461EE0D6
:100C3000751E05D400F016FB303262556D1EF9D5D5
:100C4000B3460122084302D000227F1C04E0207832
:100C5000302801D100227F1E002A099784D01DE090
:100C6000112D07DA00F0FEFA303262556D1C50EAA1
:100C70000102F5D1084302D00098C8B10EE000216E
:100C8000681E05E0235C625C63542254401E491CCC
:100C90008142F7DBAB46A81B401E0990002004F8F8
:100CA0000B000B98099AC0F80880C0E9002B7AE77E
:100CB00011264FF0000857E72DE9F04F884604460B
:100CC000D21D22F0070191B0D1E90001CDE90A015E
:100CD00014F0C8F802460B98C00F01D02D2007E091
:100CE0002068810701D52B2002E0202101EAC00005
:100CF000032A099001D0072A05DB03464146204616
:100D000000F074FC0BE12078800601D5E06900E07A
:100D10000620B8F1650F814606D0B8F1660F18D0ED
:100D2000B8F1670F70D131E00020B9F1110F0090D8
:100D300001DB112301E009F101030AAA01A90CA8B2
:100D4000FFF7E2FEDDE90C70002609F1010583469C
:100D500047E001204B4600904FF000470AAA01A946
:100D60000CA8FFF7D1FEDDE90DB00C995D46002619
:100D700010B909F101000D18B9EB050003D4C0F159
:100D8000FF3609F10105A5EB09002BE0B9F1010FD0
:100D900001DA4FF001090020B9F1110F0090484627
:100DA00001DD112300E003460AAA01A90CA8FFF700
:100DB000ABFEDDE90C704D46002683462078000727
:100DC0000AD4AB4500DA5D4601A8012D04DD4119C6
:100DD00011F8011C302907D04F4502DA17F1040F32
:100DE00004DA012082460FE06D1EEEE7002F02DCE0
:100DF000ED1B3E4403E0781CA84200DD7D1CB81BBF
:100E000000F1010A4FF000472078000703D4AA45FB
:100E100001DB4FF0FF3A0021B7F1004F0DF143081D
:100E20008DF8431024D002202B23002F01DA7F42BB
:100E30002D230A21021EA0F1010000DC5FB197FB07
:100E4000F1FC97FBF1F201FB1C7C17460CF1300C16
:100E500008F801CDEEE7A8F101000370218809052B
:100E600001D5452100E06521A0F1010800F8011C31
:100E700009980FA9A1EB0807FF1D00B10120411936
:100E800001EBEA70A1693844081A401EA06120787D
:100E9000C00602D42046FFF74DFA099828B1D4E9DC
:100EA00001219047206A401C20622078C00622D58C
:100EB0002046FFF73FFA1EE0002E04DBB34502DDBB
:100EC00001A8805D00E03020D4E901219047206A2C
:100ED000401C2062761CAAF101005FEA000A0AD1D8
:100EE00000F0BCF9C0680168405CD4E9012190477A
:100EF000206A401C2062281EA5F10105DCDC07E009
:100F0000D4E9012118F8010B9047206A401C2062A7
:100F1000381EA7F10107F3DC2046FFF721FA032072
:100F200011B041E601694A1C02610878704700B5BA
:100F30008FB0CDE901310021059105497944CDE912
:100F4000031011466846FFF7CBFA0FB000BD000052
:100F5000E5FFFFFF0A6802F8010B0A607047D1E95C
:100F600000239A4202D2531C0B601070704710B5D8
:100F7000436913B1AFF3008001E0FFF702FA0120EB
:100F800010BD127800F124010A7000224A7001227B
:100F9000EDE711684FF0FF32E9E700002DE9FF5F50
:100FA00015468A460446DFF8AC80F8440027D8E9A5
:100FB00000103E46CDE9001010E03AF816106A46DF
:100FC00002A800F0E9FB411C07D02178890603D56F
:100FD000E269391891420DD80744761C20788006C2
:100FE00002D5E069B84205DDAE42E6DB3AF816000C
:100FF0000028E2D1A069C01BA0612046FFF79AF942
:10100000D8E90010CDE90010002017E03AF81810D8
:101010006A4602A800F0C0FBB0F1FF3F81460BD04A
:1010200000250DF1080B05E0D4E901211BF80500AE
:1010300090476D1C4D45F7D308F10100B042804642
:10104000E4DB206A384420622046FFF789F9BDE8D6
:10105000FF9F0000AA9901002DE9F0418046D21DB2
:1010600022F007020025D2E90002F52915A614D0C6
:10107000011E72F1000106DA0023D0EB030063EBDE
:10108000020211A608E0D8F800108B0701D50FA6C0
:1010900002E0490701D50EA601251146002408F1FA
:1010A000240704E000F0DEF830323A55641C50EAC0
:1010B0000102F7D12B46324621464046BDE8F041B9
:1010C000FFF7B4BC000000002D0000002B00000062
:1010D0002000000030B4002100F1240408E002F0F8
:1010E0000705D208303542EA4372DB086554491CD3
:1010F00052EA0305F3D10468002310A2250707D59F
:10110000A40600D421B1C46901230DA2641EC461E8
:1011100030BCFFF78BBC10B5044621461068FFF7C2
:101120007CFC02462046BDE810400023D2E7D21DD9
:1011300022F00701D1E90023CCE700000000000005
:10114000300000002DE9F05F824615468B460027EF
:101150000AF10104B9460078302801D09DB113E0AE
:1011600014F8010B0127782803D0582801D045B185
:101170000AE00DB1102D07D1002714F8010B10253E
:1011800002E0082500E00A250026B0460EE005FB37
:10119000080005FB06F101271FFA80F801EB104655
:1011A000B6F5803F00D3B94614F8010B294600F08C
:1011B00073FA0028EBDABBF1000F05D00FB1641E03
:1011C00000E05446CBF80040B9F1000F06D0FFF71D
:1011D00017FC02210160C81EBDE8F09F48EA0640E6
:1011E000FAE72DE9F04791460F468046044600266F
:1011F00014F8015B2DB1FFF7FBFB0068405DC007F1
:10120000F6D12B2D02D02D2D18D0641E4A4639461A
:101210002046FFF797FF27B13968A14201D1C7F8EF
:1012200000804FF0020471050BD54042002803DD19
:10123000FFF7E6FB0460A007BDE8F08746F4806690
:10124000E4E70028F8DAFFF7DBFB04606FF000400A
:10125000F2E7000000487047BC32002000487047A9
:10126000DC32002030B5B0F10A024FEA900E71F185
:1012700000034EEA817EB0EB0E0061EB91014FEA74
:10128000101E4EEA017E10EB0E0041EB11114FEAE9
:10129000102E4EEA016E10EB0E0041EB11214FEAC9
:1012A000104E4EEA014E10EB0E0041EB114140187A
:1012B00041F100014FEAD00040EA41704FEAD1010C
:1012C00010EB80054FEA810444EA907444EB01047A
:1012D0006D1944EB0404521BA3414FF0000348BFB7
:1012E0000A3200D530BD401C41F1000130BD000084
:1012F0002DE9F04F04460D46D21D22F0070089B0BB
:10130000D0E900974846394613F0ACFD0246F80F85
:1013100001D02D2307E02068810701D52B2302E0AF
:10132000202101EAC0038DF820300BB1012000E03C
:101330000020032A824601D0072A04DB29462046E2
:1013400000F054F93FE12078800601D40D2500E03B
:10135000E569C7F30A560D2D49DA00214FEA175BFC
:1013600008464FF00000002F00F4400007DA00EBC1
:1013700080004FF4400100EBD07001EA600081155D
:10138000012901DD4FF0FF3100224FEA850CBCF14D
:10139000180F06D31346ACF118004FF08052C2402C
:1013A00003E04FF4801323FA0CF30CF10C0CBCF1A6
:1013B000200F04D3ACF1200C09FA0CF001E007FA7D
:1013C0000CF000294FF0004801DD18B90FE00ED1F4
:1013D00040450CD319EB02095F4121B9404502D1C8
:1013E0009F4329EA0209BBEB175F00D0761C2088D7
:1013F000000502D57B48784402E07A4878441938E1
:1014000008AA302302F80A30037C0AF10101002EF9
:101410000AF1020A53546A4602DC4FF0300101E03F
:101420004FF031014FF001088DF8001002D0A6F204
:10143000FF3603E059EA470100D06B4E002D02DC75
:101440002178090704D54FF002082E218DF80110EC
:10145000C44600210BE0C7F303433F01C35C491CB2
:101460006D1E02F80830052908F1010801DA002D87
:10147000F1DC00210CE000EB1973491C1B786D1E98
:10148000082902F808304FEA091908F1010801DAC1
:10149000002DF0DC21688B0602D516E0A8F10108CA
:1014A000E04505DD02EB080313F8013C302BF5D0D5
:1014B000B8F1000F09DD02EB080313F8013C2E2BF5
:1014C00003D1090701D4A8F10108002D05DD3E2153
:1014D00002F808106D1E08F10108407C002E02F889
:1014E000080008F1010804DA2D20764202F808000D
:1014F00002E02B2002F808000A214FF47A7086429D
:1015000008F101080BDB96FBF0F3303302F80830EA
:1015100096FBF0F308F1010800FB136601E0642E6E
:101520000CDB642096FBF0F3303302F8083096FBB6
:10153000F0F308F1010800FB136601E00A2E06DB58
:1015400096FBF1F0303002F8080008F1010896FB34
:10155000F1F001FB1060303002F80800A16908F1D9
:10156000010808EB050202EB0A00081AA0612078C6
:10157000C00602D42046FEF7DDFE216A08AE01EB6C
:101580000A00206204E0D4E9012116F8010B90471B
:10159000BAF1010AF7D22078C00602D52046FEF73C
:1015A000C9FE6E4609E016F8010B3E280FD0D4E9BB
:1015B00001219047206A401C2062B8F10108F2D254
:1015C0002046FEF7CDFE09B00320BDE8F08F206A6B
:1015D0002844206203E0D4E90121302090476D1EA9
:1015E000EBD3F8E77995010002FCFFFF2DE9F0410C
:1015F0001F46044603260168072A01F4006004DB45
:1016000008B116A505E016A503E008B115A500E090
:1016100015A521F010002060A069C01EA0610FB1C7
:10162000401EA0612046FEF785FE4FB1D4E901219E
:1016300038469047206A401C2062C01C206206E0A9
:10164000206AFAE7D4E9012115F8010B9047761ECC
:10165000F8D22046FEF784FEBDE8F0814E414E00F0
:101660006E616E00494E4600696E660010B54369B2
:1016700013B1AFF3008001E0FFF790FC012010BD33
:10168000128800F1240182840022C2840122EDE745
:1016900011684FF0FF32E9E73A2800D2303820F0E5
:1016A0002002412A01D3A2F13700884201D34FF032
:1016B000FF3070472DE9F047814616468AB035481D
:1016C00078440DC88DE80D0032487844801C03AC86
:1016D0000DC884E80D0041F69B300844372190FB8B
:1016E000F1F290FBF1F5A5F1800501FB12041B3C22
:1016F00002D56442012000E00020DFF898A0804677
:101700000027FA44AAF1BE0A0EE0E0070AD03246EA
:10171000684607EB470101230AEB810100F023FB38
:101720008DE8070064107F1C002CEED1194F7F4418
:10173000AE3F19E0E80715D007EB04100DF1180AC9
:1017400090E80E008AE80E00C068F04201D19819B6
:1017500008903246012306A903A800F004FB03AB5E
:1017600083E807006D10641C002DE3D14FF00103E6
:1017700032466946B8F1000F03A802D000F0DEFA45
:1017800001E000F0F0FAC9E90001C9F808200AB048
:10179000BDE8F0874093010070B516460C4605463B
:1017A000FFF726F9036893F80101012806D0FF2C02
:1017B0000FD8185D68B101202C7070BDD3F80701F7
:1017C0003246214603F2071303442846BDE8704021
:1017D00018474FF0FF3070BD70477546FFF73AFD70
:1017E000AE4605006946534620F00700854618B00E
:1017F00020B5FEF751FDBDE820404FF000064FF048
:1018000000074FF000084FF0000B21F00701AC4635
:10181000ACE8C009ACE8C009ACE8C009ACE8C00954
:101820008D46704710B50446AFF300802046BDE8F2
:101830001040FEF71CBD000001491820ABBEFEE7BA
:10184000260002005FEA400C08BF91F0000F4FEA4B
:101850008C234FEAC12243EA51514FEA1C5018BF72
:1018600000F5F0404FEA300018BF41F000415FEA58
:101870006C5C00F02980BCF1FF3F08BF40F0804065
:101880007047130C06BF12044FF0100C4FF0000C01
:10189000130E04BF12020CF1080C130F04BF120147
:1018A0000CF1040C930F04BF92000CF1020CD30F47
:1018B00004BF52000CF1010C11464FF00002A0F1E0
:1018C0001F00A0EB0C00704711F0004F08BF7047DD
:1018D00031F000413FF4D5AF0B0C06BF09044FF0C7
:1018E000100C4FF0000C0B0E04BF09020CF1080C99
:1018F0000B0F04BF09010CF1040C8B0F04BF89000E
:101900000CF1020CCB0F04BF49000CF1010CCCF11F
:101910002003A0EB0C0022FA03F302FA0CF241EAD6
:10192000030100F10100704720F07F4C80EA0300C2
:1019300023F07F47ACEB070303F57C5300F0004036
:1019400003F1FF032DE980494FEA154B09B44FEA33
:10195000144325EA0B4E24EA03480FF2042606EB53
:10196000132749083E785FEA320203FB0667C7F592
:10197000000707FB06F64FEA54374FEAD64606F152
:10198000020607FB066CCCF1005C4FEA1C472CEA10
:10199000074C07FB06F40CFB06F504EB15464FEA73
:1019A000961634BF00204FF000404FEAD13706FBB7
:1019B00007FC4FEA1C4C0CFB0BF7D21B03FB0CF78C
:1019C00061EB07010CFB0EF7B0EB074072EB17421F
:1019D0000CFB08F734BFA2EB0742B2EB074261EB06
:1019E00017414FEA0C444FEA910706FB07FC4FEA08
:1019F0001C4C0CFB0BF7B0EBC74072EB573203FBF0
:101A00000CF734BFA2EBC742B2EBC74261EB5731D0
:101A10000CFB0EF7B0EBC70072EB57720CFB08F72C
:101A200034BFA2EBC702B2EBC70261EB5771039F51
:101A30004FEA816141EA921104EBCC044FEAD137BD
:101A40004FEA826206FB07FC42EA90124FEA80608E
:101A50004FEA1C4C0CFB0BF7D21B03FB0CF761EBA2
:101A600007010CFB0EF7B0EB074072EB17420CFBC3
:101A700008F734BFA2EB0742B2EB074261EB174114
:101A80004FEA8C554FEA910704EB9C2406FB07FCB8
:101A90004FEA1C4C0CFB0BF7B0EBC74072EB573214
:101AA00003FB0CF734BFA2EBC742B2EBC74261EBBA
:101AB00057310CFB0EF7B0EBC70072EB57720CFB03
:101AC00008F734BFA2EBC702B2EBC70261EB577154
:101AD00015EB4C254FEA816141EA92114FEA82628F
:101AE0004FEAD13742EA901206FB07FC44F10004AA
:101AF0004FEA80604FEA1C4C0CFB0BF7D21B03FB38
:101B00000CF761EB07010CFB0EF7B0EB074072EB33
:101B100017420CFB08F734BFA2EB0742B2EB0742B7
:101B200061EB174115EB1C154FEA813141EA9241F7
:101B30004FEA823242EA90424FEA80304FEA0C7616
:101B400044F1000448EA03434EEA0B484FF0000E0C
:101B5000B2EB080C71EB030724BF624639464EEB2B
:101B60000E0E4FF0000B0018524149414BEB0B0B8E
:101B7000B2EB080C71EB03077BF1000B24BF62464C
:101B800039464EEB0E0E4FF0000B00185241494102
:101B90004BEB0B0BB2EB080C71EB03077BF1000B6B
:101BA00024BF624639464EEB0E0E51EA020718BFBB
:101BB00046F0010616EB0E7655F1000254F10001D5
:101BC00003D5BDE88901BDE80088BDE88901BDE80D
:101BD0000048B619524141EB0101A3F101037047DE
:101BE00080807F7E7D7C7B7A79787776767574735A
:101BF000727171706F6E6E6D6C6C6B6A6A69686819
:101C0000676666656464636362616160605F5F5EAE
:101C10005E5D5D5C5C5B5B5A5A5959585857575624
:101C20005655555554545353525252515150505089
:101C30004F4F4F4E4E4D4D4D4C4C4C4B4B4B4A4ADB
:101C40004A4949494848484747474746464645451F
:101C50004544444444434343434242424241414158
:101C6000002B9C4630D477002BD01CB54FEA3707A9
:101C700003B44FF010004FF01001BAF1000F06D07E
:101C8000BCF1000FDCBF40F0080040F008014FF04D
:101C900000000FBCBDE810400BF1010BBBF1010FC0
:101CA00008BF5FEA170722BF12F1010211F101011B
:101CB0004FF0004143F1000300F0004043EA000010
:101CC0007047F9D35708D0E746EA064613F1400FAC
:101CD0004FEA16461FDD13F1200FDFBF16430A46F9
:101CE000002120335B42BED0C3F1200746EA0646FE
:101CF00002FA07F74FEA164646EA0706C3F120073D
:101D000022FA03F201FA07F721FA03F14FF0000378
:101D100042EA0702A7E746EA020646EA06464FEA13
:101D2000164646EA0106BCBF46EA0646360C4FF0A8
:101D300000034FF000024FF0000194E72DE9804CC2
:101D40009A46934670B491E8380007C831EA400CCF
:101D500048BF34EA430C03D5FFF7E6FDFFF780FFE9
:101D6000F0BCBDE8008C2DE9804C9A46934670B4D7
:101D700091E8380007C810F0804F08BF13F0804F7B
:101D800003D100F005F8FFF76BFFF0BCBDE8008C55
:101D900020F07F4780EA030023F07F4C07EB0C0321
:101DA000A3F57C5300F00040A3F1FE0392F0000F76
:101DB00000F0B38095F0000F00F077802DE9014925
:101DC0004FEA11404FEA144621EA004800FB06FCA6
:101DD00024EA064708FB06F607FB08F800FB07F7AE
:101DE00018EB06484CEB164C4FEA124B18EB074821
:101DF0004FEA15464CEB174022EA0B4E0BFB06FC54
:101E000025EA06470EFB06F607FB0EFE0BFB07F75F
:101E10001EEB064E4CEB164C4FF000061EEB074E29
:101E20004CEB174B18EB0B0840F1000018EB0E0BB6
:101E300058EB000840F100008F1A4FF000013CBF42
:101E4000C943661B14BFB5EB040C00213CBFC9435A
:101E5000F61B4FEA17444EEA8E0E27EA04454FEA76
:101E60001C4704FB07622CEA074C05FB07F70CFB39
:101E700005F604FB0CFC16EB074642EB174216EB8B
:101E80000C4642EB1C421BEB060658EB020241419A
:101E900046EA9E0601D5BDE80189B619524141EBDB
:101EA0000101A3F10103BDE801894FEA14454FEA9E
:101EB000114724EA054621EA074C05FB07F406FB17
:101EC00007F70CFB06F105FB0CFC11EB074144EB9B
:101ED00017444FEA124711EB0C4144EB1C4422EA31
:101EE000074C05FB07F206FB07F70CFB06F605FBA4
:101EF0000CFC16EB074642EB174216EB0C4642EB86
:101F00001C456A1854F1000148BF7047B619524188
:101F100041EB0101A3F10103704795F0000F37D0A9
:101F20004FEA11424FEA144721EA024624EA074CDD
:101F300002FB07F106FB07F70CFB06F402FB0CFCA7
:101F400014EB074441EB17414FEA154714EB0C44DF
:101F500041EB1C4125EA074C02FB07F506FB07F79E
:101F60000CFB06F602FB0CFC16EB074645EB17458F
:101F700016EB0C4645EB1C42121951F1000148BF0B
:101F80007047B619524141EB0101A3F101037047BB
:101F90004FEA14454FEA114724EA054621EA074C67
:101FA00005FB07F106FB07F70CFB06F24FF00006F6
:101FB00005FB0CFC12EB074241EB174112EB0C4204
:101FC00051EB1C4148BF7047921841EB0101A3F14E
:101FD0000103704770B50446002520680068C0F30F
:101FE0008010F0B12068806820F0010021688860CE
:101FF00002F052FE05460EE002F04EFE401B0228A3
:1020000009D9E06C40F01000E064206D40F0010060
:102010002065012070BD20680068C0F38010002892
:10202000EAD10020F6E7000038B50446002500207C
:10203000009020680068C0F3801090BB2068806822
:1020400040F0010021688860174800681749B0FB1C
:10205000F1F000EB4000009002E00098401E00907C
:1020600000980028F9D102F017FE054613E002F0AF
:1020700013FE401B02280ED9E06C40F01000E06413
:10208000206D40F00100206500BF002084F848006A
:1020900000BF012038BD20680068C0F38010002810
:1020A000E5D00020F6E700002402002040420F00A7
:1020B00030B589B005460C461022002105A815F060
:1020C00027FE224605A905A812F010FF9DF814006E
:1020D00000F08000E8B100BF00200AE005A9095C1B
:1020E0004A0005AB411C595C42EAE11105AA1154B2
:1020F000401C0F28F2DB9DF823104906090E8DF8CD
:10210000231000BF9DF8230080F087008DF8230086
:1021100016E000BF00200AE005A9095C4A0005ABF3
:10212000411C595C42EAE11105AA1154401C0F28D8
:10213000F2DB9DF823104906090E8DF8231000BF2D
:10214000D4F8140110280FD100BF002009E004F2D8
:102150000111095C05AA125C514004F201121154EC
:10216000401C1028F3DB5DE09DF8140000F08000B7
:10217000E8B100BF00200AE005A9095C4A0005ABF0
:10218000411C595C42EAE11105AA1154401C0F2878
:10219000F2DB9DF823104906090E8DF8231000BFCD
:1021A0009DF8230080F087008DF8230016E000BF23
:1021B00000200AE005A9095C4A0005AB411C595CF6
:1021C00042EAE11105AA1154401C0F28F2DB9DF8E8
:1021D00023104906090E8DF8231000BF802104F258
:1021E0000110D4F81421815405E0002104F20110FB
:1021F000D4F814218154D4F81401401CC4F81401FB
:102200001028F2D300BF002009E004F20111095C9C
:1022100005AA125C514004F201121154401C10280E
:10222000F3DB00BF00BF00200AE004F1F101095C0C
:1022300004F20112125C514004F1F1021154401CED
:102240001028F2DB00BF102204F1F10101A815F003
:1022500045FD2246294601A812F048FE1022002121
:1022600005A815F055FD09B030BD10B50446102283
:10227000002104F1F10015F04BFD0020C4F8140119
:10228000F0220021204615F043FD10BD70B5044634
:102290000D4622461021284612F056FE70BD2DE94B
:1022A000FF4104460F461546D4F8140100283BD0E0
:1022B000D4F81401C0F11000A84204D2D4F81401DB
:1022C000C0F1100000E028460646B2B204F2011147
:1022D000D4F814315818394615F000FDD4F814011B
:1022E0003044C4F81401D4F81401102801D3B542C5
:1022F00001D1BDE8FF8100BF00200AE004F1F10137
:10230000095C04F20112125C514004F1F102115413
:10231000401C1028F2DB00BF224604F1F101084600
:1023200012F0E4FD3744AD1B21E000BF002008E0BF
:1023300004F1F101095C3A5C514004F1F1021154DD
:10234000401C1028F4DB00BF102204F1F1016846A4
:1023500015F0C4FC22466946684612F0C7FD1022FB
:10236000694604F1F10015F0B9FC1037103D102D4D
:10237000DBD8AAB2394604F2011015F0AFFCC4F85C
:10238000145100BFB5E738B504460D46294620462E
:1023900000F04EF800200346024601460090204619
:1023A00000F001F838BD2DE9F04704460D4690468F
:1023B0001E46DDF8209015B90021A1600DE0012D29
:1023C00002D12906A16008E0022D02D12906A160F0
:1023D00003E0032D01D12906A160B8F1000F02D15D
:1023E0000021616201E00121616216B9002161638F
:1023F0000CE0012E02D13107A16307E0022E02D1C9
:102400003107A16302E04FF04051A163B9F1000F21
:1024100002D10021E16002E04FF40061E16001219E
:10242000A1622746384602F0C7F8BDE8F0870000F1
:102430007CB504460D460648206000200090034607
:1024400003222946019004F1540000F0F9FF7CBDFD
:10245000002401402DE9FF4105460E4600272C4689
:10246000012090FAA0F1B1FA81F1394A42F8210035
:1024700000BF2020022191FAA1F1B1FA81F10843B5
:102480000121B1EB601F02D13248006802E03148FF
:10249000343000682021022292FAA2F2B2FA82F2CB
:1024A000114301F01F020121914008400028E0D0B3
:1024B00000BF28482030006840F4007025492031D2
:1024C00008600846006800F40070009000BF00BF7C
:1024D0000196012002900620039001A9204601F0F8
:1024E000E5FE2068806840F0010021688860204691
:1024F00002F0A9F94FF0FF31204602F045F92046DD
:1025000002F056F887B22068806820F00100216848
:1025100088600198102802D00198112802D1204625
:1025200001F0B0FF0B482030006820F4007009492A
:10253000203108600020012191FAA1F1B1FA81F166
:10254000034A42F82100384604B0BDE8F08100009B
:10255000000047420038024070B505460C46E1B223
:102560002846FFF777FF70BDF0B503460C460125FE
:1025700062480078C0F18000C1B2981E09287DD25F
:10258000DFE800F0051329374D6A82909E005C4811
:102590000078884208DA5A4806780078401C584F7C
:1025A0003870584883550025A1E0481E544E3678AF
:1025B000B0420FDD524806780078401C504F38700A
:1025C00050488355384606780078401C38704D488E
:1025D000845500258BE04A480078884208DA48484C
:1025E00006780078401C464F3870464883550025D1
:1025F0007DE0481E424E3678B0420FDD40480678F6
:102600000078401C3E4F38703E4883553846067867
:102610000078401C38703B488455002567E0881ED0
:10262000374E3678B04216DD354806780078401CC3
:10263000334F387033488355384606780078401C4D
:10264000387030488455384606780078401C387019
:102650002C48825500254AE0481E294E3678B04263
:1026600011DD274806780078401C254F3870254832
:102670008355384606780078401C00E035E0387015
:1026800020488455002532E01D480078884208DA49
:102690001B4806780078401C194F3870194883553C
:1026A000002524E016480078884208DA14480678A5
:1026B0000078401C124F387012488355002516E0F0
:1026C0000F48007888420FDA0D4806780078401CE1
:1026D0000B4F38700B488355384606780078401CFD
:1026E000387008488455002501E00220F0BD00BF85
:1026F00015B90120044E30702846F7E76C0200201F
:102700006B020020DA1B00206A02002010B504468C
:10271000012C01D10EF0CEFF0148047010BD000065
:102720001202002010B5054811F034FA0FF01AFB20
:1027300000210248603801F030F810BD303100202F
:102740002DE9F0474FF0000940F61C4440F6B83040
:10275000844202DB4FF0FE0913E0B4F5166F02DC91
:102760004FF001090DE0A4F5166016F048FE07468B
:10277000054A064B16F0AAFE054616F013FE00F0B9
:10278000FF094846BDE8F087713D0AD7A370CD3FE9
:102790001849096D174A526E1144090EC171154945
:1027A000096D144A526E1144090C8171114950315E
:1027B0000988104AB2F864201144090A41710D4990
:1027C000503109780B4A92F864201144017109498B
:1027D000496D090EC1700749496D090C81700549A1
:1027E00054310988090A417002495431097801704D
:1027F000704700000000F81F1CB51448007870B93D
:1028000001201249087002F0C9FC11F00FFB0EF014
:10281000F9FE00F021F80E480021016081804FF0A0
:10282000FF3005230622072100900A4811F05AFACA
:102830000FF0D8FA012000210B460246CDE9001026
:1028400061210448603800F0FBFD1CBD010200203E
:10285000180100203031002010B502F04DF802F0D0
:1028600037F802F03FF810BD3EB504461448007832
:102870008DF80000134800788DF802008DF80340B1
:102880001148006811F0CAFB0190104800680290DE
:102890000F4800788DF8010069460E48007809F06D
:1028A0009BFF0A4800680C490988484307490968A2
:1028B000401A0A4909680844084908603EBD0000FA
:1028C000620200207C020020800200209C02002086
:1028D0007F020020300200207002002078020020D9
:1028E00030B50246002300200AE001248440144051
:1028F00001258540AC4201D15C1CE3B2441CE0B22E
:102900008842F2DB184630BD2DE9F84F074688466D
:1029100091461E464FF0000AD34600250020009045
:1029200051E0002446E0009839F810000121A14050
:10293000084098B3281900EB400056F8200000B971
:1029400036E02FB90120A04000F0030000B92FE0CD
:10295000281900EB400006EB800090F908000211F6
:10296000281900EB400006EB8000007A40F30301D9
:102970004FFA88F00AF04CFA00B919E0281900EB78
:10298000400006EB8000417A0A9800EB0110C06815
:1029900028B10BF1010000F0FF0B09E007E0281956
:1029A000C2B25046411C01F0FF0A0B990A5400BF05
:1029B000601CC4B2102CB6DB05F11000C5B2009843
:1029C000401CC0B20090102DABDB0C9880F800B01A
:1029D0005046BDE8F88F2DE9F84F07468846164661
:1029E00099464FF0000AD34600250020009047E0AA
:1029F00000243CE0009838F810000121A140084074
:102A000090B3281900EB400056F8200000B92CE0E4
:102A1000281900EB400006EB800090F90800021135
:102A2000281900EB400006EB8000007A40F3030118
:102A300078B20AF0EDF900B917E0281900EB400070
:102A400006EB8000407A09EB0010C06820B10BF162
:102A5000010000F0FF0B08E02819C2B25046411CEB
:102A600001F0FF0A0A990A5400BF601CC4B2102C7E
:102A7000C0DB05F11000C5B20098401CC0B2009048
:102A8000482DB5DB0B9880F800B05046BDE8F88FB4
:102A90002DE9F84F07468846164699464FF0000A3A
:102AA000D34600250020009047E000243CE0009839
:102AB00038F810000121A140084090B3281900EB1C
:102AC000400056F8200000B92CE0281900EB400027
:102AD00006EB800090F908000211281900EB400075
:102AE00006EB8000007A40F3030178B20AF090F917
:102AF00000B917E0281900EB400006EB8000407A8F
:102B000009EB0010C06820B10BF1010000F0FF0BD1
:102B100008E02819C2B25046411C01F0FF0A0A9988
:102B20000A5400BF601CC4B2102CC0DB05F11000B9
:102B3000C5B20098401CC0B20090602DB5DB0B9868
:102B400080F800B05046BDE8F88F2DE9F84F0746F1
:102B5000884691461E464FF0000AD34600250020C5
:102B6000009051E0002446E0009839F8100001215F
:102B7000A140084098B3281900EB400056F8200007
:102B800000B936E02FB90120A04000F0070000B9DD
:102B90002FE0281900EB400006EB800090F90800B8
:102BA0000211281900EB400006EB8000007A40F388
:102BB00003014FFA88F00AF02BF900B919E028193F
:102BC00000EB400006EB8000417A0A9800EB011010
:102BD000C06828B10BF1010000F0FF0B09E007E02D
:102BE0002819C2B25046411C01F0FF0A0B990A5441
:102BF00000BF601CC4B2102CB6DB05F11000C5B2DA
:102C00000098401CC0B20090102DABDB0C9880F8EF
:102C100000B05046BDE8F88F2DE9F84F07468846CA
:102C200091461E464FF0000AD34600250020009032
:102C300051E0002446E0009839F810000121A1403D
:102C4000084098B3281900EB400056F8200000B95E
:102C500036E02FB90120A04000F0070000B92FE0B6
:102C6000281900EB400006EB800090F908000211E3
:102C7000281900EB400006EB8000007A40F30301C6
:102C80004FFA88F00AF0C4F800B919E0281900EBEF
:102C9000400006EB8000417A0A9800EB0110C06802
:102CA00028B10BF1010000F0FF0B09E007E0281943
:102CB000C2B25046411C01F0FF0A0B990A5400BFF2
:102CC000601CC4B2102CB6DB05F11000C5B2009830
:102CD000401CC0B20090102DABDB0C9880F800B007
:102CE0005046BDE8F88F2DE9F84F074688469146D3
:102CF0001E464FF0000AD34600250020009051E008
:102D0000002446E0009839F810000121A140084055
:102D100098B3281900EB400056F8200000B936E0BF
:102D20002FB90120A04000F0070000B92FE02819BA
:102D300000EB400006EB800090F908000211281912
:102D400000EB400006EB8000007A40F303014FFAED
:102D500088F00AF05DF800B919E0281900EB40008E
:102D600006EB8000417A0A9800EB0110C06828B198
:102D70000BF1010000F0FF0B09E007E02819C2B2D7
:102D80005046411C01F0FF0A0B990A5400BF601C19
:102D9000C4B2102CB6DB05F11000C5B20098401C7F
:102DA000C0B20090102DABDB0C9880F800B05046FC
:102DB000BDE8F88F2DE9F84F0746884691461E4634
:102DC0004FF0000AD34600250020009051E0002477
:102DD00046E0009839F810000121A140084098B35E
:102DE000281900EB400056F8200000B936E02FB952
:102DF0000120A04000F0070000B92FE0281900EBE7
:102E0000400006EB800090F908000211281900EB41
:102E1000400006EB8000007A40F303014FFA88F08F
:102E200009F0F6FF00B919E0281900EB400006EBA5
:102E30008000417A0A9800EB0110C06828B10BF1BC
:102E4000010000F0FF0B09E007E02819C2B250466C
:102E5000411C01F0FF0A0B990A5400BF601CC4B268
:102E6000102CB6DB05F11000C5B20098401CC0B2B2
:102E70000090102DABDB0C9880F800B05046BDE8F8
:102E8000F88F2DE9F84F07468846164699464FF0C9
:102E9000000AD34600250020009047E000243CE0D3
:102EA000009838F810000121A140084090B328197B
:102EB00000EB400056F8200000B92CE0281900EB88
:102EC000400006EB800090F908000211281900EB81
:102ED000400006EB8000007A40F3030178B209F06D
:102EE00097FF00B917E0281900EB400006EB8000BF
:102EF000407A09EB0010C06820B10BF1010000F02E
:102F0000FF0B08E02819C2B25046411C01F0FF0A2D
:102F10000A990A5400BF601CC4B2102CC0DB05F132
:102F20001000C5B20098401CC0B20090482DB5DB1F
:102F30000B9880F800B05046BDE8F88F10B50446F5
:102F4000204601F0E3FC10BD10B50EF0B3FB0120EC
:102F500001F09EFD10BD10B50EF0ACFB4FF480608B
:102F600001F096FD4FF4006001F092FD4FF48050A7
:102F700001F08EFD4FF4005001F08AFD4FF48040C7
:102F800001F086FD4FF4004001F082FD10BD10B548
:102F90000EF090FB022001F07BFD10BD10B50EF08D
:102FA00089FB042001F074FD10BD10B50EF082FB0A
:102FB000082001F06DFD10BD10B50EF07BFB102058
:102FC00001F066FD10BD10B50EF074FB202001F07D
:102FD0005FFD402001F05CFD802001F059FD4FF4C1
:102FE000807001F055FD4FF4007001F051FD10BDEF
:102FF0000021094A51610949096841F40071074AF1
:1030000011601146096841F008011160002120F0AB
:10301000FF02116070470000A4190020043C024028
:103020001748006800F48070B0F5807F05D115481E
:10303000406940F00200134948611148006800F4FB
:103040000070B0F5007F05D10E48406940F00100E6
:103050000C4948610A48006800F40060B0F5006F50
:1030600009D10848406940F00400064948614FF41E
:103070000060034908604FF44070014908607047E0
:10308000183C0240A419002070B5044601F004FE6B
:10309000054609E0601C38B124B101F0FDFD401B7C
:1030A000A04201D9032070BD1448006800F001005F
:1030B0000028EFD11148006800F00200022801D179
:1030C0000E4908600D48006800F48070B0F5807FFC
:1030D0000DD00A48006800F40060B0F5006F06D01B
:1030E0000648006800F40070B0F5007F03D1FFF7D8
:1030F00097FF0120D7E70020D5E70000183C0240E9
:10310000002101804180704700230380438041609B
:103110000281704710B502461389481C90FBF3F4F6
:1031200003FB140080B210BD70B504462188204610
:10313000FFF7F0FF61680D5C21882046FFF7EAFF8A
:103140002080284670BD70B504460D466188204633
:10315000FFF7E0FF608061886068455470BD10B57E
:10316000062002F04BF8072002F048F8082002F091
:1031700045F8092002F042F80A2002F03FF8172033
:1031800002F03CF8282002F039F810BD10B50446D2
:10319000044850F8240018B1024951F8240080472F
:1031A00010BD00005015002001460B4850F82100CA
:1031B000A0F5F430483840B1A0F5F430483830B1CB
:1031C000A0F57430903820B100BF00207047012076
:1031D000FCE70220FAE700006CA1010801460B4859
:1031E00050F82100A0F5F430483840B1A0F5F43093
:1031F000483830B1A0F57430903820B100BF0020BD
:1032000070470120FCE70220FAE70000ECA101086A
:1032100001460B4850F82100A0F5F430483840B181
:10322000A0F5F430483830B1A0F57430903820B1B2
:1032300000BF002070470120FCE70220FAE70000F1
:1032400090A2010801460B4850F82100A0F5F43087
:10325000483840B1A0F5F430483830B1A0F57430AA
:10326000903820B100BF002070470120FCE7022009
:10327000FAE70000CCA2010801460B4850F82100F3
:10328000A0F5F430483840B1A0F5F430483830B1FA
:10329000A0F57430903820B100BF002070470120A5
:1032A000FCE70220FAE7000038A3010801460B48BA
:1032B00050F82100A0F5F430483840B1A0F5F430C2
:1032C000483830B1A0F57430903820B100BF0020EC
:1032D00070470120FCE70220FAE70000A4A30108E0
:1032E00001460B4850F82100A0F5F430483840B1B1
:1032F000A0F5F430483830B1A0F57430903820B1E2
:1033000000BF002070470120FCE70220FAE7000020
:1033100018A4010801460B4850F82100A0F5F4302C
:10332000483840B1A0F5F430483830B1A0F57430D9
:10333000903820B100BF002070470120FCE7022038
:10334000FAE7000080A4010801207047024600212E
:1033500011E00B4850F8310090420AD8084B481C45
:1033600053F83000904204D9184600EBC1000079B0
:103370007047481CC1B21529EBD300BFFEE700001F
:1033800034A5010801460348814201D30E2070474D
:103390000A20FCE72021F636024600238A4201D1AA
:1033A000CBB201E0501EC3B258B2704702460023B0
:1033B0008A4201D1CBB201E0501EC3B258B270476D
:1033C000024600238A4201D1CBB201E0501EC3B2B3
:1033D00058B27047024600238A4201D1CBB201E0C5
:1033E000501EC3B258B27047024600238A4201D130
:1033F000CBB201E0501EC3B258B270470246002360
:103400008A4201D1CBB205E0072A01D1052301E0B0
:10341000501EC3B258B27047024600238A4201D1FF
:10342000CBB201E0501EC3B258B27047024600232F
:103430008A4201D1CBB201E0501EC3B258B27047EC
:103440002DE9FC4705460C4616461F46DDE90A896C
:103450000620B0EB241F07D33B46324621462846C0
:10346000CDE9008900F002F8BDE8FC872DE9F043C2
:1034700087B004460E4615461F46DDE90E98701CBF
:1034800010B907B0BDE8F0832670207800F00F0176
:10349000012088406080207800F0F00078B946482C
:1034A000606000BF4548006840F001004349086083
:1034B0000846006800F00100019000BF4EE020784F
:1034C00000F0F00010280FD13D48606000BF3B487D
:1034D000006840F00200394908600846006800F0C2
:1034E0000200019000BF39E0207800F0F0002028B1
:1034F0000FD13448606000BF3048006840F00400DD
:103500002E4908600846006800F00400019000BFE2
:1035100024E0207800F0F00030280FD12A486060C5
:1035200000BF2648006840F00800244908600846AB
:10353000006800F00800019000BF0FE023486060C1
:1035400000BF1E48006840F020001C490860084683
:10355000006800F02000019000BF00BF608802906A
:10356000CDF810900220059015B90020039017E0C7
:10357000032D02D10320039012E0022D09D1012F67
:1035800002D11220039001E002200390CDF81880B0
:1035900006E0012F02D11120039001E001200390E9
:1035A00002A9606801F082FA012D03D1414620464C
:1035B00000F0BEF800BF64E7000002401C38024083
:1035C0000004024000080240000C024000140240C7
:1035D00010B5044604B900BF94F90000401C08B9B6
:1035E000002010BD6188606801F048FBF9E7000029
:1035F0002DE9F04385B004460D4616461F464FF0B0
:1036000000084FF0060917B905B0BDE8F0836088DF
:103610000090012D02D14248019006E0022D02D116
:103620004048019001E040480190002002900220B3
:1036300003906946606801F039FA052E0ED2DFE882
:1036400006F00304070A0E0000BF4FF0030809E06C
:103650004FF0020806E04FF0010803E000BF4FF012
:10366000000800BF00BF6088B0F5807F3DD012DC4D
:10367000102834D008DC012825D0022826D00428C0
:1036800027D008283DD127E020282BD040282AD059
:10369000802836D128E0B0F5805F2CD009DCB0F569
:1036A000007F23D0B0F5806F23D0B0F5006F28D114
:1036B00020E0B0F5005F1FD0B0F5804F1DD0B0F511
:1036C000004F1ED11AE04FF006091BE04FF007092A
:1036D00018E04FF0080915E04FF0090912E04FF02B
:1036E0000A090FE000BF00BF00BF00BF4FF017097D
:1036F00008E000BF00BF00BF00BF00BF4FF02809B7
:1037000000E000BF00BF207800F00F00074941F83B
:10371000207000224146484601F07DFD00BF73E75E
:103720000000111000002110000031105015002081
:1037300070B504460D460CB1606800B900BF94F93D
:103740000000401C00B970BDEAB26188606801F0F9
:103750009DFA00BFF7E710B5044694F90000062172
:10376000B1EB201F03D32046FFF732FF10BD00202E
:10377000FCE72DE9F04104460D4616461F4694F934
:1037800000000621B1EB201F05D33B4632462946F7
:103790002046FFF72DFFBDE8F08170B504460D46C9
:1037A00094F900000621B1EB201F03D329462046DF
:1037B000FFF7BEFF70BD00002DE9F04790B04FF05D
:1037C000000A09E0BD4810F80A0000F00F01BB48EC
:1037D00000F80A100AF1010ABAF10A0FF2DBB74940
:1037E0001339087D15F022FECDE90C01B3491339D8
:1037F000C87C15F01BFE0022B14BCDE9080115F085
:1038000065FECDE90A01DDE90C2315F08FFB0646C4
:103810000F46AA491339887D15F008FECDE90C0141
:10382000A6491339487D15F001FE0022A44BCDE9CD
:10383000080115F04BFECDE90A01DDE90C2315F076
:1038400075FB804689469D491339C87E15F0EEFD0B
:10385000CDE90C0199491339887E15F0E7FD002266
:10386000974BCDE9040115F031FECDE908019349EC
:103870001339487E15F0DAFD0022924BCDE90001A4
:1038800015F024FECDE904018C491339087E15F0AA
:10389000CDFD00228C4BCDE9000115F017FECDE9DE
:1038A0000201DDE9042315F041FBCDE90601DDE964
:1038B000082315F03BFBCDE90A01DDE90C2315F0E7
:1038C00035FB04460D46814A814B2046294615F0BA
:1038D000FDFD42464B46CDE9080115F027FB0022CD
:1038E0007C4BCDE90A0115F0D5FB32463B46CDE9CC
:1038F0000C0115F01BFB784A03C270481338407F57
:10390000532807D10022754B734903C915F0DEFD1A
:10391000714A03C24FF0000A0BE068480C3010F8FF
:103920000A0000F00F0165480C3000F80A100AF197
:10393000010ABAF10A0FF0DB6049133991F821004E
:1039400015F074FDCDE90C015C49133991F82000A4
:1039500015F06CFD00225A4BCDE9040115F0B6FDBF
:10396000CDE9080155491339C87F15F05FFD0022E4
:10397000544BCDE9040115F0A9FDCDE90601DDE9BF
:10398000082315F0D3FACDE90A01DDE90C2315F07F
:10399000CDFA06460F464949133991F8230015F030
:1039A00045FDCDE90C014549133991F8220015F088
:1039B0003DFD0022424BCDE9080115F087FDCDE920
:1039C0000A01DDE90C2315F0B1FA804689463B492E
:1039D000133991F8260015F029FD0022394BCDE965
:1039E000080115F073FDCDE90C013449133991F844
:1039F000250015F01BFD0022334BCDE9080115F021
:103A000065FDCDE90A01DDE90C2315F08FFA0446C6
:103A10000D462A49133991F8280015F007FDCDE924
:103A20000C012649133991F8270015F0FFFC0022FC
:103A3000234BCDE9080115F049FDCDE90A01DDE987
:103A40000C2315F073FACDE90E0120462946DDE975
:103A50000E2315F06BFA1D4A1D4BCDE9060115F03A
:103A600035FD00221B4BCDE9080115F013FB0022A8
:103A7000184BCDE90C014046494615F00BFB324688
:103A80003B46CDE9080115F051FACDE90A01DDE91F
:103A90000C2315F04BFA124A03C20848133890F869
:103AA0002A00572807D100220C4B0D4903C915F0F5
:103AB0000DFD0B4A03C210B0BDE8F0876B32002049
:103AC000000024400000594000408F402D431CEB73
:103AD000E2361A3F00004E40C00300200000F0BF55
:103AE000C80300202DE9F041002213462F4903C9E5
:103AF00015F0EAFD14D84FF040422D4B2B4903C975
:103B000015F0E4FC04460D4600222A4B20462946C7
:103B100015F0C0FA064615F015FC2749086013E0B9
:103B20000022234B5B1C214903C915F0CFFC04463E
:103B30000D4600221F4B2046294615F0ABFA0646DB
:103B400015F000FC1C490860002213461B4903C9FC
:103B500015F0BAFD14D84FF04042154B174903C970
:103B600015F0B4FC04460D460022154B20462946AC
:103B700015F090FA064615F0E5FB1249086013E0CF
:103B800000220B4B5B1C0D4903C915F09FFC04463A
:103B90000D4600220A4B2046294615F07BFA0646C0
:103BA00015F0D0FB07490860BDE8F081C003002094
:103BB000FFFF5F4100805640D0030020C803002073
:103BC00000806640D403002010B505221449154832
:103BD000FCF7E0FD68B9134991F82C10302901DD9C
:103BE000012100E00021084615F009FC0E4A03C23D
:103BF00011E005220D490B48FCF7CCFD58B90949E5
:103C0000497C412901D1012100E00021084615F03D
:103C1000F6FB054A03C2FFF7CFFDFFF763FF10BDB8
:103C2000F4A5010858320020B803002006A60108B8
:103C300010B500200249087000F004F810BD000023
:103C4000E00300201CB500200A49087001200A4941
:103C500008700020009003460122014601900748A9
:103C6000FFF7EEFB06480749486300F061F800F0F3
:103C700047F81CBD08020020090200201016002091
:103C80008D3C0008041500207047000038B504463C
:103C9000012C2DD16946174810F030FF40BB9DF82C
:103CA0000000242803D0144800787F2802DB00207D
:103CB000114908709DF800100F4802780078401CE8
:103CC0000D4B18700D4881549DF800000A280FD143
:103CD0000021184602780078401C1870074881546B
:103CE00018460178054800F083F80020FEF70EFD25
:103CF00038BD0000041500200802002090150020A7
:103D00003EB5012484B11B231A220321074810F079
:103D100009FF00200090019003464FF41652012144
:103D20000290024810F03EFE3EBD00000415002047
:103D300010B501210148FFF730FD10BD101600201D
:103D40002DE9F047064688461746002500241EB197
:103D500017B1B8F1010F03DC4FF0FF30BDE8F08779
:103D6000705D242800D16D1C08E0705D6040C4B215
:103D70006D1C454502DB4FF0FF30EFE7705D2A28F0
:103D8000F3D1A146E11704EB1171C1F3071004F060
:103D900021FF3870E11704EB11710911A4EB011137
:103DA000C8B204F017FF7870681CD7E7F8B505466D
:103DB0000E466A4631462846FFF7C2FF0446002CED
:103DC00001DA0020F8BDB01EA04201DC0020F9E7B6
:103DD00028579DF90010884207D1601C28569DF98C
:103DE0000110884201D10120ECE70020EAE7000041
:103DF0002DE9F04107468846012400250026387841
:103E0000242804D0FFF740FF0020BDE8F0814146A0
:103E10003846FFF7CBFF08B90020F6E7002603E09D
:103E2000062E01DD0020F0E73046711CCEB22044A2
:103E3000385C2C28F4D1002506E0385DFC49485553
:103E4000681CC5B2601CC4B2B542F6DB0522F94954
:103E5000F748FCF79FFC002872D1002603E00B2EE8
:103E600001DD0020D1E73046711CCEB22044385C21
:103E70002C28F4D1002507E0395DED48801D41551F
:103E8000681CC5B2601CC4B2B542F5DB002603E075
:103E90000A2E01DD0020B8E73046711CCEB2204466
:103EA000385C2C28F4D1002507E0395DE048133058
:103EB0004155681CC5B2601CC4B2B542F5DB002692
:103EC00003E0022E01DD00209FE73046711CCEB2D8
:103ED0002044385C2C28F4D1002507E0395DD44813
:103EE0001D304155681CC5B2601CC4B2B542F5DB3B
:103EF000002603E00B2E01DD002086E73046711C12
:103F0000CEB22044385C2C28F4D1002507E0395D7E
:103F1000C7481F304155681CC5B2601CC4B2B542C9
:103F2000F5DB002603E0022E01DD00206DE73046C0
:103F3000711CCEB22044385C2C28F4D1002508E056
:103F4000BCE0395DBA482A304155681CC5B2601CD6
:103F5000C4B2B542F5DB002603E0022E01DD0020ED
:103F600053E73046711CCEB22044385C2C28F4D183
:103F7000002507E0395DAE482C304155681CC5B2BC
:103F8000601CC4B2B542F5DB002603E0032E01DD60
:103F900000203AE73046711CCEB22044385C2C2811
:103FA000F4D1002507E0395DA1482E304155681C49
:103FB000C5B2601CC4B2B542F5DB002603E0062E94
:103FC00001DD002021E73046711CCEB22044385C70
:103FD0002C28F4D1002507E0395D95483130415552
:103FE000681CC5B2601CC4B2B542F5DB002603E014
:103FF000082E01DD002008E73046711CCEB22044B7
:10400000385C2C28F4D1002507E0395D884837302A
:104010004155681CC5B2601CC4B2B542F5DB002630
:1040200003E0022E01DD0020EFE63046711CCEB227
:104030002044385C2C28F4D1002507E0395D7C4809
:104040003F304155681CC5B2601CC4B2B542F5DBB7
:10405000002603E0082E01DD0020D6E63046711C64
:10406000CEB22044385C2C28F4D1002507E0395D1D
:104070006F4841304155681CC5B2601CC4B2B5429E
:10408000F5DB002603E0022E01DD0020BDE6304610
:10409000711CCEB22044385C2C28F4D1002507E0F6
:1040A000395D634849304155681CC5B2601CC4B2D3
:1040B000B542F5DBFFF788FD0120A6E605225E4943
:1040C0005B48FCF767FB002872D1002603E00B2E4B
:1040D00001DD002099E63046711CCEB22044385CE8
:1040E0002C28F4D1002507E0395D5148801D415549
:1040F000681CC5B2601CC4B2B542F5DB002603E003
:10410000022E01DD002080E63046711CCEB2204434
:10411000385C2C28F4D1002507E0395D4448113083
:104120004155681CC5B2601CC4B2B542F5DB00261F
:1041300003E00A2E01DD002067E63046711CCEB296
:104140002044385C2C28F4D1002507E0395D38483C
:1041500013304155681CC5B2601CC4B2B542F5DBD2
:10416000002603E0022E01DD00204EE63046711CE1
:10417000CEB22044385C2C28F4D1002507E0395D0C
:104180002B481D304155681CC5B2601CC4B2B542F5
:10419000F5DB002603E00B2E01DD002035E630467E
:1041A000711CCEB22044385C2C28F4D1002508E0E4
:1041B00077E0395D1E481F304155681CC5B2601C50
:1041C000C4B2B542F5DB002603E0022E01DD00207B
:1041D0001BE63046711CCEB22044385C2C28F4D14A
:1041E000002507E0395D12482A304155681CC5B2E8
:1041F000601CC4B2B542F5DB002603E0082E01DDE9
:10420000002002E63046711CCEB22044385C2C28D7
:10421000F4D1002507E0395D05484B304155681C55
:10422000C5B2601CC4B2B542F5DB00260AE000004E
:1042300058320020F4A5010806A60108082E01DD69
:104240000020E2E53046711CCEB22044385C2C28B8
:10425000F4D1002506E0395D13484155681CC5B20C
:10426000601CC4B2B542F6DB002603E0082E01DD77
:104270000020CAE53046711CCEB22044385C2C28A0
:10428000F4D1002507E0395D074808304155681C26
:10429000C5B2601CC4B2B542F5DBFFF795FC012046
:1042A000B3E50020B1E50000AB32002038B502468E
:1042B00000230020009000BF92F84800012801D19F
:1042C000022038BD012082F8480000BF4868072856
:1042D00012D21068006C0C79641E04EB84051F2454
:1042E000AC40A0430D796D1E05EB85050C68AC4014
:1042F00020431468206453E048680D2812D21068E7
:10430000C06B0C79E41F04EB84051F24AC40A04370
:104310000D79ED1F05EB85050C68AC402043146852
:10432000E0633DE04868132812D21068806B0C7976
:104330000D3C04EB84051F24AC40A0430D790D3DDA
:1043400005EB85050C68AC4020431468A06327E0AA
:104350004868192812D21068406B0C79133C04EBA2
:1043600084051F24AC40A0430D79133D05EB850562
:104370000C68AC4020431468606311E01068006B67
:104380000C79193C04EB84051F24AC40A0430D7943
:10439000193D05EB85050C68AC402043146820638B
:1043A00008680A2810D2106840690C7804EB4405AC
:1043B0000724AC40A0430D7805EB45058C68AC4064
:1043C0002043146860612CE00868142812D2106839
:1043D00000690C780A3C04EB44050724AC40A04378
:1043E0000D780A3D05EB45058C68AC402043146808
:1043F000206116E008681A2812D81068C0680C7886
:10440000143C04EB44050724AC40A0430D78143D54
:1044100005EB45058C68AC4020431468E06000E083
:1044200000BF0868102802D0086811281DD1124862
:10443000006800F40000C0B90F48006840F40000B4
:104440000D4C2060086810280FD10C4800680C4CF7
:10445000B0FBF4F000EB80004000009002E0009818
:10446000401E009000980028F9D100BF002082F87B
:10447000480000BF184624E704270140240200201A
:1044800040420F0070B5044600250CB9012070BDF4
:10449000E06C40F00200E0642046FDF79BFD05461D
:1044A000002D76D16FF01F002168086020684068F9
:1044B0003B490840216848602068806839490840C5
:1044C0002168886000BF2068C0686FF3140021680D
:1044D000C8602068006900F04040216808612068D9
:1044E000406900F0404021684861206880696FF3AE
:1044F0000B00216888612068C0696FF30B00216898
:10450000C8612068006A6FF30B00216808622068A8
:10451000406A6FF30B00216848622068806A6FF37D
:104520000B00216888622068C06A6FF30B00216865
:10453000C8622068006B1C49084021680863206835
:10454000406B00F04040216848632068806B00F0B9
:104550004040216888632068C06B00F040402168BB
:10456000C8632068006C00F040402168086420683F
:10457000406C6FF31500216848640C48006820F413
:1045800000000A490860204600F0FCF80020206581
:10459000E06400BF002084F8480000BF284676E7AA
:1045A00000003CF88CF0808000800FFE0427014062
:1045B00001460868806D7047F8B50446002700265C
:1045C00000250CB90120F8BD206910B1E06A00B1E6
:1045D00000BF606B102800D000BFE06CA0B90020C5
:1045E000206584F8480000BF6148006840F0010081
:1045F0005F4908600846006800F00100009000BFB5
:1046000000BF204600F0BFF8E06C00F0100000286A
:1046100074D1E06C20F4885040F00200E06455480A
:10462000006820F4403061680843524908606169BD
:10463000E06808434FF4007292FAA2F2B2FA82F2F2
:10464000E16B91400843216A0843022292FAA2F2E8
:10465000B2FA82F2616A914008430543606B102808
:1046600003D0D4E90D010843054320680068C0F376
:10467000801090BBA0690543E169A06808432169E7
:10468000B1F5807F02D02169012902D14FF48071F8
:1046900000E0002108430643E06A012816D1606A61
:1046A00060B9206B401E4FF4604191FAA1F1B1FA5C
:1046B00081F1884040F40060064307E0E06C40F080
:1046C0002000E064206D40F0010020652068406813
:1046D000294908403043216848602068806827499C
:1046E00008402843216888602069B0F5807F02D0A7
:1046F0002069012803D14FF4807001E035E00020EB
:10470000B0F5807F10D12068006B20F0F871A06AAE
:10471000401E4FF0F87292FAA2F2B2FA82F2904082
:1047200001432068016305E02068006B20F0F87009
:10473000216808632068806811490840A84208D1B0
:1047400000202065E06C20F0020040F00100E064F1
:104750000CE0E06C20F0020040F01000E064206DFE
:1047600040F001002065012700E0012738462AE7D4
:104770002038024004270140FF16FCFC8DF1FFC0E9
:10478000FEFF80BF7047704770B504460D46002697
:104790002068806800F4806078B12068806800F448
:1047A000807050B1E06C40F02000E06400BF002059
:1047B00084F8480000BF012070BD00F06DFA064685
:1047C00012E0681C80B125B100F066FA801BA84297
:1047D0000AD9E06C40F00400E06400BF002084F8D7
:1047E000480000BF0320E7E72068006800F00200EF
:1047F0000028E6D0A06918B96FF01200216808609F
:10480000E06C40F40070E0642068806800F0405084
:10481000B8B9606AA8B92068006B00F0F87020B1E0
:104820002068806800F4806058B9E06C20F48070E3
:10483000E064E06C00F4805018B9E06C40F00100D6
:10484000E0640020B8E770B50446002500BF94F886
:104850004800012801D1022070BD012084F84800E1
:1048600000BF2046FDF7E0FB05467DBBE06C40F253
:104870000161884340F48070E0642068406800F47F
:10488000806028B1E06C20F4005040F48050E06477
:10489000E06C00F4805020B1206D20F0060020650F
:1048A00001E00020206500BF002084F8480000BF20
:1048B000C01E216808602068806800F0405028B958
:1048C0002068806840F08040216888602846C3E7FF
:1048D0000348406840F0010001494860704700000B
:1048E000002004E00348406840F0040001494860AB
:1048F00070470000002004E00348406840F00200D8
:104900000149486070470000002004E031B50024F0
:1049100000F0C2F9044600BF00F0BEF9001B009988
:104920008842F9D338BD00002DE9F04104460E4617
:104930000127002500BF1E48007C012802D102206B
:10494000BDE8F08101201A49087400BF4CF25030D4
:10495000FEF79AFB07461FBB4FF0FF3030606568DB
:1049600017E02846FEF744FB4CF25030FEF78CFB74
:1049700007461048006820F008000E490860084605
:10498000006820F4007008600FB1356007E005F59D
:104990008075D4E9011001EB0020A842E1D800BFE6
:1049A00000BF00200249087400BF3846C8E7000075
:1049B000A4190020043C02400348006840F00200B3
:1049C0000149086000207047043C02402DE9F04195
:1049D00080460E4614461D46012700BF1048007C45
:1049E000012802D10220BDE8F08101200C490874A1
:1049F00000BF4CF25030FEF747FB074647B9002096
:104A00000749486134604CF25030FEF73DFB0746E1
:104A100000BF00200249087400BF3846E3E70000E9
:104A2000A41900200D48006800F0020088B10B486E
:104A3000006800F0010028B1094808490831086001
:104A400008480860084805490C31086007480860B4
:104A500001E0012070470020FCE70000043C024018
:104A6000EFCDAB8905040302BFAE9D8C1615141360
:104A70000021002808DD02E040104A1CD1B20128C4
:104A8000FAD14A1C014B1A60704700000402002052
:104A900010B5044604480068204020B10248046074
:104AA0002046FFF7E5FF10BD1404014078B503462A
:104AB000002200240020CAE0012696400D6805EA85
:104AC0000604002C71D04D68022D02D04D68122DC5
:104AD00013D1D60803F1200555F826005507EE0E30
:104AE0000F25B540A8435607F60E0D69B54028437B
:104AF000D60803F1200545F826001868560003255E
:104B0000B540A8430D7905F003055600B54028438C
:104B100018604D68012D08D04D68022D05D04D68F4
:104B2000112D02D04D68122D13D19868560003251F
:104B3000B540A8435600CD68B540284398605868F2
:104B400001259540A8430D79C5F3001595402843EC
:104B50005860D86856000325B540A84356008D68B4
:104B6000B5402843D8604D6805F08055B5F1805FA9
:104B70006CD100BF394D2D6845F00105374E3560C9
:104B800035462D6805F00105009500BF00BF344D86
:104B9000960855F8260095072E0F0F25B540A84317
:104BA000304DAB4202D1002515E04FE02E4DAB4217
:104BB00001D101250FE02D4DAB4201D102250AE0C4
:104BC0002B4DAB4201D1032505E02A4DAB4201D16B
:104BD000042500E005259607360FB5402843204DF3
:104BE000960845F82600244D2868A0434D6805F432
:104BF0008035B5F5803F00D120431F4D28602D1D25
:104C00002868A0434D6805F40035B5F5003F00D194
:104C10002043194D2D1D28602D1D2868A0434D6887
:104C200005F48015B5F5801F00D12043124D0835DD
:104C300028602D1D2868A0434D6805F40015B5F5C2
:104C4000001F00D120430C4D0C352860521C0D680C
:104C5000D540002D7FF430AF78BD000020380240F1
:104C60000800014000000240000402400008024029
:104C7000000C02400010024000040140024613698B
:104C80000B400BB1012000E0002070470AB18161A8
:104C900001E00B0483617047014800687047000021
:104CA0002802002070B50446002600250CB901201A
:104CB00070BD94F8350028B9002084F834002046EF
:104CC00000F063FA00F092FD05465048854201D29B
:104CD0000120EDE7242084F835002068006820F0EA
:104CE0000100216808604A48B5FBF0F6206840687A
:104CF00020F03F00304321684860464960688842A0
:104D000001D8701C07E04FF4967070434FF47A712D
:104D1000B0FBF1F0401C2168096A21F03F01084313
:104D2000216808623B49606888420ED8606840008C
:104D3000B5FBF0F0C0F30B00042801D204202DE0F5
:104D400060684000B5FBF0F028E0A06828B9606812
:104D500000EB4000B5FBF0F008E0606800EBC0013C
:104D600001EB0010B5FBF0F040F48040C0F30B0005
:104D700008B9012012E0A06828B9606800EB400083
:104D8000B5FBF0F008E0606800EBC00101EB00103B
:104D9000B5FBF0F040F4804040F400402168C96960
:104DA0004CF6FF72914308432168C861D4E90701BA
:104DB00008432168096821F0C001084321680860A0
:104DC000D4E9031008432168896848F2FF3291430F
:104DD000084321688860D4E9050108432168C9684F
:104DE00021F0FF0108432168C8602068006840F096
:104DF0000100216808600020A063202084F83500AD
:104E0000002084F8360000BF52E7000080841E00B6
:104E100040420F00A08601002DE9F84F0446884665
:104E200091469A460AADE0CD94F83500202870D11D
:104E300005B116B90120BDE8F88F42F210730122C6
:104E40004FF00211204602F0C1FA08B10220F2E749
:104E500000BF94F83400012801D10220EBE70120C3
:104E600084F8340000BF2068006820F400602168E6
:104E70000860222084F83500402084F836000020A5
:104E8000A06353464A4641462046009702F094F9F3
:104E900080B1A06B042806D100BF002084F8340044
:104EA00000BF0120C7E700BF002084F8340000BF26
:104EB0000320C0E7012E15D12068006820F480602F
:104EC0002168086000BF2068406900902068806900
:104ED000009000BF00BF2068006840F400702168A7
:104EE000086020E0022E15D12068006820F4806060
:104EF000216808602068006840F40060216808604C
:104F000000BF20684069009020688069009000BF61
:104F100009E09AE000BF206840690090206880693D
:104F2000009000BF00BF82E0032E63DC012E12D18F
:104F30003946204602F00EFB30B1A06B202801D18B
:104F4000032078E7012076E72068006905F8010B67
:104F5000701E86B26BE0022E1BD13B4600223C49FC
:104F6000204602F033FA08B1032064E720680068A5
:104F700040F40070216808602068006905F8010BA2
:104F8000701E86B22068006905F8010B701E86B29B
:104F90004DE03B4600222E49204602F017FA08B1A8
:104FA000032048E72068006820F4806021680860DA
:104FB0002068006905F8010B701E86B23B4600228E
:104FC0002349204602F002FA08B1032033E72068A3
:104FD000006840F40070216808602068006905F8E6
:104FE000010B701E86B22068006905F8010B701E67
:104FF00086B21CE03946204602F0ACFA30B1A06B14
:10500000202801D1032016E7012014E72068006959
:1050100005F8010B701E86B220684069C0F380005D
:1050200028B12068006905F8010B701E86B2002EB9
:105030003FF77AAF202084F83500002084F836004E
:1050400000BF84F8340000BFF5E60220F3E600005C
:10505000040001002DE9F84F0446884691469A461F
:105060000AADE0CD94F83500202878D105B116B905
:105070000120BDE8F88F42F2107301224FF00211B7
:10508000204602F0A3F908B10220F2E700BF94F82D
:105090003400012801D10220EBE7012084F834001C
:1050A00000BF2068006820F40060216808602120AB
:1050B00084F83500402084F836000020A063534671
:1050C0004A4641462046009702F018F980B1A06B8D
:1050D000042806D100BF002084F8340000BF01205E
:1050E000C7E700BF002084F8340000BF0320C0E7FA
:1050F00023E03946204602F066FA60B1A06B04282E
:1051000007D12068006840F4007021680860012021
:10511000AFE70320ADE715F8010B21680861701EA9
:1051200086B220684069C0F3800030B12EB115F816
:10513000010B21680861701E86B2002ED9DC394649
:10514000204602F040FA68B1A06B042808D120681C
:10515000006840F4007021680860012089E712E0CF
:10516000032086E72068006840F40070216808602A
:10517000202084F83500002084F8360000BF84F831
:10518000340000BF75E7022073E7704702480068EB
:10519000401C0149086070472802002010B5032018
:1051A00000F078F8002000F005F800F017F8002073
:1051B00010BD000070B50446074800684FF47A71CE
:1051C000B0FBF1F5284601F0D9FC00222146501E23
:1051D00000F021F8002070BD24020020704700007C
:1051E00000BF00F01F0201219140034A430942F829
:1051F000231000BF7047000080E100E000BF00F016
:105200001F02012191404209920002F1E022C2F8FE
:10521000001100BF70472DE9F05F80460D4616462D
:10522000002703F07BFC074639462A46334601F047
:105230000700C0F1070ABAF1040F02D94FF0040ABF
:1052400001E0C0F1070AD14600F1040ABAF1070FE4
:1052500002D24FF0000A01E0A0F1030AD4464FF059
:10526000010A0AFA09FAAAF1010A0AEA020A0AFA82
:105270000CFA4FF0010B0BFA0CFBABF1010B0BEA34
:10528000030B4AEA0B042146404603F04FFCBDE8FD
:10529000F09F000000BF00F00702064B19684FF6B0
:1052A000FF031940044B0B4343EA0221014B1960F1
:1052B00000BF70470CED00E00000FA0501208102FC
:1052C00091FAA1F1B1FA81F1014A42F82100704747
:1052D00000000E420120410291FAA1F1B1FA81F1E0
:1052E000014A42F82100704700000E42024800685F
:1052F00000F4C050704700000070004000201021F2
:1053000091FAA1F1B1FA81F1014A42F82100704706
:1053100000000E420D4A126822F0030202430B4BBA
:105320001A600B4A126842F00402094B1A60012904
:1053300001D130BF02E040BF20BF20BF044A126845
:1053400022F00402024B1A60704700000070004017
:1053500010ED00E0F8B5044600260025207800F0A6
:105360000100002875D0207800F0010000B100BFD6
:1053700000BF5E48006840F080505C490860084605
:10538000006800F08050009000BF00BF58480068DF
:1053900040F4807056490860FFF77EFC064606E040
:1053A000FFF77AFC801B642801D90320F8BD504820
:1053B000006800F480700028F2D04C48243800685F
:1053C00000F0C045606800F0C040A8420DD06068A1
:1053D00000F44030B0F5403F07D14448243800681D
:1053E00000F4003008B10120E0E7404810300068C8
:1053F00000F44035002D57D0606800F44030A842DA
:1054000052D0207800F00100E0B338481030006836
:1054100020F440350120C10591FAA1F1B1FA81F1E2
:10542000344A02EB8101C1F880060021C00590FAE0
:10543000A0F0B0FA80F002EB8000C0F880162B4894
:105440001030056005F40070E0B1FFF725FC06465A
:1054500009E049E0FFF720FC801B41F288318842D7
:1054600001D90320A2E74020C10091FAA1F1B1FACD
:1054700081F108430121B1EB601F04D11B4824389E
:10548000006803E010E01948103000684021CA00AD
:1054900092FAA2F2B2FA82F2114301F01F02012144
:1054A000914008400028D5D000BF00BF606800F4DC
:1054B0004030B0F5403F0BD10C482438006820F054
:1054C000C040616801F0C0410843084924390860C0
:1054D00000BF064810300068616801F4403108439D
:1054E00002491031086000BF00205FE72438024005
:1054F000007000400000474270B504460D4600268B
:10550000B348006800F00100A84218D200BF012D86
:1055100005D1AF48006840F00400AD490860AC48D0
:10552000006820F001002843A949086000BF084630
:10553000006800F00100A84201D0012070BD207871
:1055400000F00200022807D1A248006820F0F00015
:10555000A16808439F490860207800F001000028F6
:105560007BD06068022821D12020010391FAA1F1AB
:10557000B1FA81F108430121B1EB601F03D19548D5
:105580000838006802E093482C30006820210A03A4
:1055900092FAA2F2B2FA82F2114301F01F02012143
:1055A0009140084000286CD10120C7E760680328BB
:1055B00020D12020010591FAA1F1B1FA81F108432F
:1055C0000121B1EB601F03D182480838006802E076
:1055D00080482C30006820210A0592FAA2F2B2FA23
:1055E00082F2114301F01F02012191400840A8BB43
:1055F0000120A3E76068012820D12020022191FA30
:10560000A1F1B1FA81F108430121B1EB601F03D18F
:1056100070480838006802E06E482C30006820218D
:10562000022292FAA2F2B2FA82F2114301F01F02B0
:1056300001219140084088B901207FE72020010125
:1056400091FAA1F1B1FA81F108430121B1EB601F98
:1056500005D160480838006804E069E011E05D4861
:105660002C30006820210A0192FAA2F2B2FA82F2EA
:10567000114301F01F0201219140084008B90120A7
:105680005CE75448006820F0030061680843514912
:105690000860FFF701FB06466068022810D108E0A9
:1056A000FFF7FAFA801B41F28831884201D90320C2
:1056B00044E74848006800F00C000828F0D137E0C3
:1056C0006068032810D108E0FFF7E6FA801B41F27A
:1056D0008831884201D9032030E73E48006800F055
:1056E0000C000C28F0D123E06068012810D108E0FC
:1056F000FFF7D2FA801B41F28831884201D903209A
:105700001CE73448006800F00C000428F0D10FE0DA
:1057100008E0FFF7C1FA801B41F28831884201D9C5
:1057200003200BE72B48006800F00C000028F0D1A4
:105730002748006800F00100A84218D900BF012DD9
:1057400005D12348006840F0040021490860204842
:10575000006820F0010028431D49086000BF08468A
:10576000006800F00100A84201D00120E6E62078A0
:1057700000F00400042807D11648006820F4E06017
:10578000E168084313490860207800F00800082801
:1057900008D11048006820F46050216940EAC10037
:1057A0000C49086000F04EF80A49096801F0F00160
:1057B000F02292FAA2F2B2FA82F2D140064A515C89
:1057C000C840064908600020FFF7F4FC0020B5E659
:1057D000003C0240083802407DA00108240200205D
:1057E00001480068704700002402002000B5FFF760
:1057F000F7FF0749096801F4E0614FF4E06292FAAB
:10580000A2F2B2FA82F2D140024A515CC84000BD15
:10581000083802408DA0010800B5FFF7E1FF0749F5
:10582000096801F460514FF4605292FAA2F2B2FAA0
:1058300082F2D140024A515CC84000BD08380240A3
:105840008DA00108F0B500210023002400220025CE
:105850000020264E316801F00C0686B3042E04D0D9
:10586000082E04D00C2E2BD103E021483BE0214828
:1058700039E001F470164FF4701797FAA7F7B7FAEA
:1058800087F7FE401C4FBB5D01F440064FF4400714
:1058900097FAA7F7B7FA87F7FE40184FBC5D134E8B
:1058A000366806F4803626B1124E5E43B6FBF4F23B
:1058B00003E00F4E5E43B6FBF4F2104613E000E047
:1058C00000BF0A4E361F366806F460464FF4604744
:1058D00097FAA7F7B7FA87F726FA07F56E1C01279C
:1058E000B740F80300BF00BFF0BD00000838024019
:1058F0000024F400001BB70099A0010895A001083E
:1059000038B504460025207800F00100002879D041
:10591000F748006800F00C0008280CD0F448006834
:1059200000F00C000C282BD1F148006800F4803006
:10593000B0F5803F24D12020010391FAA1F1B1FA02
:1059400081F108430121B1EB601F03D1E848083819
:10595000006802E0E6482C30006820210A0392FA31
:10596000A2F2B2FA82F2114301F01F02012191402A
:1059700008400028CBD06068002843D1012038BD02
:1059800000BF6068012808D1D9480838006840F491
:105990008030D749083908602DE0606868B9D4487C
:1059A0000838006820F48030D1490839086008467A
:1059B000006820F4802008601DE0606805280DD193
:1059C000CB480838006840F48020C949083908608D
:1059D0000846006840F4803008600CE0C44808388D
:1059E000006820F48030C249083908600846006821
:1059F00020F48020086000BF606860B3FFF74CF9B6
:105A0000054607E052E0FFF747F9401B642801D93B
:105A10000320B4E72020010391FAA1F1B1FA81F14A
:105A200008430121B1EB601F03D1B1480838006879
:105A300002E0AF482C30006820210A0392FAA2F25B
:105A4000B2FA82F2114301F01F0201219140084095
:105A50000028D8D02AE0FFF71FF9054606E0FFF737
:105A60001BF9401B642801D9032088E7202001038B
:105A700091FAA1F1B1FA81F108430121B1EB601F64
:105A800003D19B480838006802E099482C30006830
:105A900020210A0392FAA2F2B2FA82F2114301F033
:105AA0001F020121914008400028D8D1207800F041
:105AB0000200022845D18E48006800F00C0004283E
:105AC0000AD08B48006800F00C000C283BD18848B5
:105AD000006800F48030A8BB2020022191FAA1F1D7
